{
  "contractName": "SimpleStorage",
  "abi": [
    {
      "constant": true,
      "inputs": [],
      "name": "imageCount",
      "outputs": [
        {
          "name": "",
          "type": "uint256"
        }
      ],
      "payable": false,
      "stateMutability": "view",
      "type": "function"
    },
    {
      "constant": true,
      "inputs": [
        {
          "name": "",
          "type": "uint256"
        }
      ],
      "name": "ipfsHashes",
      "outputs": [
        {
          "name": "",
          "type": "string"
        }
      ],
      "payable": false,
      "stateMutability": "view",
      "type": "function"
    },
    {
      "constant": false,
      "inputs": [
        {
          "name": "hash",
          "type": "string"
        }
      ],
      "name": "set",
      "outputs": [],
      "payable": false,
      "stateMutability": "nonpayable",
      "type": "function"
    }
  ],
  "bytecode": "0x608060405234801561001057600080fd5b5061035b806100206000396000f300608060405260043610610057576000357c0100000000000000000000000000000000000000000000000000000000900463ffffffff1680634ed3885e1461005c57806392053b63146100c5578063a4de2f5c146100f0575b600080fd5b34801561006857600080fd5b506100c3600480360381019080803590602001908201803590602001908080601f0160208091040260200160405190810160405280939291908181526020018383808284378201915050505050509192919290505050610196565b005b3480156100d157600080fd5b506100da6101d4565b6040518082815260200191505060405180910390f35b3480156100fc57600080fd5b5061011b600480360381019080803590602001909291905050506101da565b6040518080602001828103825283818151815260200191508051906020019080838360005b8381101561015b578082015181840152602081019050610140565b50505050905090810190601f1680156101885780820380516001836020036101000a031916815260200191505b509250505060405180910390f35b60016000815480929190600101919050555080600080600154815260200190815260200160002090805190602001906101d092919061028a565b5050565b60015481565b60006020528060005260406000206000915090508054600181600116156101000203166002900480601f0160208091040260200160405190810160405280929190818152602001828054600181600116156101000203166002900480156102825780601f1061025757610100808354040283529160200191610282565b820191906000526020600020905b81548152906001019060200180831161026557829003601f168201915b505050505081565b828054600181600116156101000203166002900490600052602060002090601f016020900481019282601f106102cb57805160ff19168380011785556102f9565b828001600101855582156102f9579182015b828111156102f85782518255916020019190600101906102dd565b5b509050610306919061030a565b5090565b61032c91905b80821115610328576000816000905550600101610310565b5090565b905600a165627a7a7230582042afc2b9415727ec9cd6abe78e1452493ad95ed4880f9a26dcb29aa2ea94ad010029",
  "source": "pragma solidity 0.4.24;\r\n\r\ncontract SimpleStorage {\r\n\r\n  mapping(uint => string) public ipfsHashes;\r\n  uint public imageCount;\r\n\r\n  function set(string hash) public {\r\n\timageCount ++;\r\n    ipfsHashes[imageCount] = hash;\r\n  }\r\n}\r\n",
  "sourcePath": "C:\\Users\\Aidan\\Documents\\Truffle-Workspace\\Home_Appraisal_Dapp\\contracts\\SimpleStorage.sol",
  "compiler": {
    "name": "solc",
    "version": "0.4.24+commit.e67f0147.Emscripten.clang"
  },
  "schemaVersion": "2.0.1",
  "updatedAt": "2018-10-14T23:54:05.107Z"
}